:1000000012C02CC02BC02AC029C028C027C026C0BF
:1000100025C024C023C022C021C0EAC01FC012C115
:100020001DC01CC01BC011241FBECFE5D4E0DEBF25
:10003000CDBF10E0A0E6B0E0E0EEF2E002C0059037
:100040000D92A837B107D9F720E0A8E7B0E001C0CA
:100050001D92AC37B207E1F702D040C1D1CFCF93A8
:10006000DF93CDB7DEB72B970FB6F894DEBF0FBE88
:10007000CDBF8BE0E0E6F0E0DE01119601900D923D
:100080008A95E1F7E980FA800B811C812D813E8100
:100090004F81588569857A858B8506D08BE690E0FF
:1000A00095D090D088D0FDCFEF92FF920F931F9301
:1000B000CF93DF93CDB7DEB72B970FB6F894DEBFA3
:1000C0000FBECDBFE982FA820B831C832D833E8352
:1000D0004F83588769877A878B8769817A818B817B
:1000E0009C810D811E812F813885000F111F221FD9
:1000F000331F000F111F221F331FA9019801220F68
:10010000331F441F551F220F331F441F551FC4D0D8
:10011000215031098AB180618AB98AB188608AB96F
:1001200029B980B58F7780BD30BD80B5806880BD2E
:1001300080B58F7B80BD8985813039F480B5806240
:1001400080BD80B58F7E80BD11C0811107C080B594
:10015000806280BD80B5806180BD08C0823031F48E
:1001600080B58F7D80BD80B58F7E80BD80B582607B
:1001700080BD80B5846080BD8A85811106C08FB73F
:1001800080688FBF8AB180688AB98B85811106C06B
:100190008FB780688FBF8AB180648AB92B960FB6FB
:1001A000F894DEBF0FBECDBFDF91CF911F910F91AD
:1001B000FF90EF9008955D9BFECF8CB98BB180646A
:1001C0008BB908955F9BFECF8CB108950F931F9359
:1001D000CF938C01C0E002C0EEDFCF5FF801EC0FDF
:1001E000F11D80818111F8CFCF911F910F9108955A
:1001F0001F920F920FB60F9211242F933F934F939C
:100200005F936F937F938F939F93AF93BF93EF937E
:10021000FF93E0917800F091790009958BB18068A7
:100220008BB9FF91EF91BF91AF919F918F917F918A
:100230006F915F914F913F912F910F900FBE0F9053
:100240001F9018951F920F920FB60F9211242F93A3
:100250003F934F935F936F937F938F939F93AF934E
:10026000BF93EF93FF93E0917A00F0917B000995A3
:100270008BB180648BB9FF91EF91BF91AF919F914A
:100280008F917F916F915F914F913F912F910F903F
:100290000FBE0F901F901895A1E21A2EAA1BBB1B30
:1002A000FD010DC0AA1FBB1FEE1FFF1FA217B30742
:1002B000E407F50720F0A21BB30BE40BF50B661F58
:1002C000771F881F991F1A9469F76095709580951C
:1002D00090959B01AC01BD01CF010895F894FFCF2B
:1002E00000127A008025000001010145736C616DE8
:0802F00020456D617261000000
:00000001FF
